{
  "_format": "hh-sol-artifact-1",
  "contractName": "BuyMyRoom",
  "sourceName": "contracts/BuyMyRoom.sol",
  "abi": [
    {
      "inputs": [
        {
          "internalType": "contract MyERC20",
          "name": "_myERC20",
          "type": "address"
        }
      ],
      "stateMutability": "nonpayable",
      "type": "constructor"
    },
    {
      "inputs": [],
      "name": "ERC721EnumerableForbiddenBatchMint",
      "type": "error"
    },
    {
      "inputs": [
        {
          "internalType": "address",
          "name": "sender",
          "type": "address"
        },
        {
          "internalType": "uint256",
          "name": "tokenId",
          "type": "uint256"
        },
        {
          "internalType": "address",
          "name": "owner",
          "type": "address"
        }
      ],
      "name": "ERC721IncorrectOwner",
      "type": "error"
    },
    {
      "inputs": [
        {
          "internalType": "address",
          "name": "operator",
          "type": "address"
        },
        {
          "internalType": "uint256",
          "name": "tokenId",
          "type": "uint256"
        }
      ],
      "name": "ERC721InsufficientApproval",
      "type": "error"
    },
    {
      "inputs": [
        {
          "internalType": "address",
          "name": "approver",
          "type": "address"
        }
      ],
      "name": "ERC721InvalidApprover",
      "type": "error"
    },
    {
      "inputs": [
        {
          "internalType": "address",
          "name": "operator",
          "type": "address"
        }
      ],
      "name": "ERC721InvalidOperator",
      "type": "error"
    },
    {
      "inputs": [
        {
          "internalType": "address",
          "name": "owner",
          "type": "address"
        }
      ],
      "name": "ERC721InvalidOwner",
      "type": "error"
    },
    {
      "inputs": [
        {
          "internalType": "address",
          "name": "receiver",
          "type": "address"
        }
      ],
      "name": "ERC721InvalidReceiver",
      "type": "error"
    },
    {
      "inputs": [
        {
          "internalType": "address",
          "name": "sender",
          "type": "address"
        }
      ],
      "name": "ERC721InvalidSender",
      "type": "error"
    },
    {
      "inputs": [
        {
          "internalType": "uint256",
          "name": "tokenId",
          "type": "uint256"
        }
      ],
      "name": "ERC721NonexistentToken",
      "type": "error"
    },
    {
      "inputs": [
        {
          "internalType": "address",
          "name": "owner",
          "type": "address"
        },
        {
          "internalType": "uint256",
          "name": "index",
          "type": "uint256"
        }
      ],
      "name": "ERC721OutOfBoundsIndex",
      "type": "error"
    },
    {
      "anonymous": false,
      "inputs": [
        {
          "indexed": true,
          "internalType": "address",
          "name": "owner",
          "type": "address"
        },
        {
          "indexed": true,
          "internalType": "address",
          "name": "approved",
          "type": "address"
        },
        {
          "indexed": true,
          "internalType": "uint256",
          "name": "tokenId",
          "type": "uint256"
        }
      ],
      "name": "Approval",
      "type": "event"
    },
    {
      "anonymous": false,
      "inputs": [
        {
          "indexed": true,
          "internalType": "address",
          "name": "owner",
          "type": "address"
        },
        {
          "indexed": true,
          "internalType": "address",
          "name": "operator",
          "type": "address"
        },
        {
          "indexed": false,
          "internalType": "bool",
          "name": "approved",
          "type": "bool"
        }
      ],
      "name": "ApprovalForAll",
      "type": "event"
    },
    {
      "anonymous": false,
      "inputs": [
        {
          "indexed": true,
          "internalType": "address",
          "name": "user",
          "type": "address"
        },
        {
          "indexed": false,
          "internalType": "uint256",
          "name": "etherAmount",
          "type": "uint256"
        },
        {
          "indexed": false,
          "internalType": "uint256",
          "name": "tokenAmount",
          "type": "uint256"
        }
      ],
      "name": "EtherExchanged",
      "type": "event"
    },
    {
      "anonymous": false,
      "inputs": [
        {
          "indexed": false,
          "internalType": "uint256",
          "name": "tokenId",
          "type": "uint256"
        },
        {
          "indexed": false,
          "internalType": "uint256",
          "name": "price",
          "type": "uint256"
        },
        {
          "indexed": true,
          "internalType": "address",
          "name": "owner",
          "type": "address"
        }
      ],
      "name": "HouseListed",
      "type": "event"
    },
    {
      "anonymous": false,
      "inputs": [
        {
          "indexed": false,
          "internalType": "uint256",
          "name": "tokenId",
          "type": "uint256"
        },
        {
          "indexed": true,
          "internalType": "address",
          "name": "buyer",
          "type": "address"
        },
        {
          "indexed": false,
          "internalType": "uint256",
          "name": "price",
          "type": "uint256"
        }
      ],
      "name": "HouseSold",
      "type": "event"
    },
    {
      "anonymous": false,
      "inputs": [
        {
          "indexed": true,
          "internalType": "address",
          "name": "from",
          "type": "address"
        },
        {
          "indexed": true,
          "internalType": "address",
          "name": "to",
          "type": "address"
        },
        {
          "indexed": true,
          "internalType": "uint256",
          "name": "tokenId",
          "type": "uint256"
        }
      ],
      "name": "Transfer",
      "type": "event"
    },
    {
      "inputs": [],
      "name": "EXCHANGE_RATE",
      "outputs": [
        {
          "internalType": "uint256",
          "name": "",
          "type": "uint256"
        }
      ],
      "stateMutability": "view",
      "type": "function"
    },
    {
      "inputs": [],
      "name": "FEE_RATE",
      "outputs": [
        {
          "internalType": "uint256",
          "name": "",
          "type": "uint256"
        }
      ],
      "stateMutability": "view",
      "type": "function"
    },
    {
      "inputs": [
        {
          "internalType": "address",
          "name": "to",
          "type": "address"
        },
        {
          "internalType": "uint256",
          "name": "tokenId",
          "type": "uint256"
        }
      ],
      "name": "approve",
      "outputs": [],
      "stateMutability": "nonpayable",
      "type": "function"
    },
    {
      "inputs": [
        {
          "internalType": "address",
          "name": "owner",
          "type": "address"
        }
      ],
      "name": "balanceOf",
      "outputs": [
        {
          "internalType": "uint256",
          "name": "",
          "type": "uint256"
        }
      ],
      "stateMutability": "view",
      "type": "function"
    },
    {
      "inputs": [
        {
          "internalType": "uint256",
          "name": "tokenId",
          "type": "uint256"
        }
      ],
      "name": "buyHouse",
      "outputs": [],
      "stateMutability": "nonpayable",
      "type": "function"
    },
    {
      "inputs": [
        {
          "internalType": "uint256",
          "name": "amount",
          "type": "uint256"
        }
      ],
      "name": "depositTokens",
      "outputs": [],
      "stateMutability": "nonpayable",
      "type": "function"
    },
    {
      "inputs": [],
      "name": "exchangeEtherForTokens",
      "outputs": [],
      "stateMutability": "payable",
      "type": "function"
    },
    {
      "inputs": [
        {
          "internalType": "uint256",
          "name": "tokenId",
          "type": "uint256"
        }
      ],
      "name": "getApproved",
      "outputs": [
        {
          "internalType": "address",
          "name": "",
          "type": "address"
        }
      ],
      "stateMutability": "view",
      "type": "function"
    },
    {
      "inputs": [],
      "name": "getContractBalance",
      "outputs": [
        {
          "internalType": "uint256",
          "name": "",
          "type": "uint256"
        }
      ],
      "stateMutability": "view",
      "type": "function"
    },
    {
      "inputs": [
        {
          "internalType": "uint256",
          "name": "tokenId",
          "type": "uint256"
        }
      ],
      "name": "getHouseDetails",
      "outputs": [
        {
          "internalType": "address",
          "name": "owner",
          "type": "address"
        },
        {
          "internalType": "uint256",
          "name": "price",
          "type": "uint256"
        },
        {
          "internalType": "uint256",
          "name": "listedTimestamp",
          "type": "uint256"
        },
        {
          "internalType": "bool",
          "name": "isListed",
          "type": "bool"
        }
      ],
      "stateMutability": "view",
      "type": "function"
    },
    {
      "inputs": [],
      "name": "getListedHouses",
      "outputs": [
        {
          "internalType": "uint256[]",
          "name": "",
          "type": "uint256[]"
        }
      ],
      "stateMutability": "view",
      "type": "function"
    },
    {
      "inputs": [
        {
          "internalType": "address",
          "name": "user",
          "type": "address"
        }
      ],
      "name": "getOwnedHouses",
      "outputs": [
        {
          "internalType": "uint256[]",
          "name": "",
          "type": "uint256[]"
        }
      ],
      "stateMutability": "view",
      "type": "function"
    },
    {
      "inputs": [],
      "name": "getPlatformOwnerBalance",
      "outputs": [
        {
          "internalType": "uint256",
          "name": "",
          "type": "uint256"
        }
      ],
      "stateMutability": "view",
      "type": "function"
    },
    {
      "inputs": [
        {
          "internalType": "uint256",
          "name": "",
          "type": "uint256"
        }
      ],
      "name": "houses",
      "outputs": [
        {
          "internalType": "address",
          "name": "owner",
          "type": "address"
        },
        {
          "internalType": "uint256",
          "name": "price",
          "type": "uint256"
        },
        {
          "internalType": "uint256",
          "name": "listedTimestamp",
          "type": "uint256"
        },
        {
          "internalType": "bool",
          "name": "isListed",
          "type": "bool"
        }
      ],
      "stateMutability": "view",
      "type": "function"
    },
    {
      "inputs": [
        {
          "internalType": "address",
          "name": "owner",
          "type": "address"
        },
        {
          "internalType": "address",
          "name": "operator",
          "type": "address"
        }
      ],
      "name": "isApprovedForAll",
      "outputs": [
        {
          "internalType": "bool",
          "name": "",
          "type": "bool"
        }
      ],
      "stateMutability": "view",
      "type": "function"
    },
    {
      "inputs": [
        {
          "internalType": "uint256",
          "name": "tokenId",
          "type": "uint256"
        },
        {
          "internalType": "uint256",
          "name": "price",
          "type": "uint256"
        }
      ],
      "name": "listHouse",
      "outputs": [],
      "stateMutability": "nonpayable",
      "type": "function"
    },
    {
      "inputs": [
        {
          "internalType": "address",
          "name": "to",
          "type": "address"
        },
        {
          "internalType": "uint256",
          "name": "tokenId",
          "type": "uint256"
        }
      ],
      "name": "mintHouse",
      "outputs": [],
      "stateMutability": "nonpayable",
      "type": "function"
    },
    {
      "inputs": [],
      "name": "myERC20",
      "outputs": [
        {
          "internalType": "contract MyERC20",
          "name": "",
          "type": "address"
        }
      ],
      "stateMutability": "view",
      "type": "function"
    },
    {
      "inputs": [],
      "name": "name",
      "outputs": [
        {
          "internalType": "string",
          "name": "",
          "type": "string"
        }
      ],
      "stateMutability": "view",
      "type": "function"
    },
    {
      "inputs": [
        {
          "internalType": "uint256",
          "name": "tokenId",
          "type": "uint256"
        }
      ],
      "name": "ownerOf",
      "outputs": [
        {
          "internalType": "address",
          "name": "",
          "type": "address"
        }
      ],
      "stateMutability": "view",
      "type": "function"
    },
    {
      "inputs": [],
      "name": "platformOwner",
      "outputs": [
        {
          "internalType": "address",
          "name": "",
          "type": "address"
        }
      ],
      "stateMutability": "view",
      "type": "function"
    },
    {
      "inputs": [
        {
          "internalType": "address",
          "name": "from",
          "type": "address"
        },
        {
          "internalType": "address",
          "name": "to",
          "type": "address"
        },
        {
          "internalType": "uint256",
          "name": "tokenId",
          "type": "uint256"
        }
      ],
      "name": "safeTransferFrom",
      "outputs": [],
      "stateMutability": "nonpayable",
      "type": "function"
    },
    {
      "inputs": [
        {
          "internalType": "address",
          "name": "from",
          "type": "address"
        },
        {
          "internalType": "address",
          "name": "to",
          "type": "address"
        },
        {
          "internalType": "uint256",
          "name": "tokenId",
          "type": "uint256"
        },
        {
          "internalType": "bytes",
          "name": "data",
          "type": "bytes"
        }
      ],
      "name": "safeTransferFrom",
      "outputs": [],
      "stateMutability": "nonpayable",
      "type": "function"
    },
    {
      "inputs": [
        {
          "internalType": "address",
          "name": "operator",
          "type": "address"
        },
        {
          "internalType": "bool",
          "name": "approved",
          "type": "bool"
        }
      ],
      "name": "setApprovalForAll",
      "outputs": [],
      "stateMutability": "nonpayable",
      "type": "function"
    },
    {
      "inputs": [
        {
          "internalType": "bytes4",
          "name": "interfaceId",
          "type": "bytes4"
        }
      ],
      "name": "supportsInterface",
      "outputs": [
        {
          "internalType": "bool",
          "name": "",
          "type": "bool"
        }
      ],
      "stateMutability": "view",
      "type": "function"
    },
    {
      "inputs": [],
      "name": "symbol",
      "outputs": [
        {
          "internalType": "string",
          "name": "",
          "type": "string"
        }
      ],
      "stateMutability": "view",
      "type": "function"
    },
    {
      "inputs": [
        {
          "internalType": "uint256",
          "name": "index",
          "type": "uint256"
        }
      ],
      "name": "tokenByIndex",
      "outputs": [
        {
          "internalType": "uint256",
          "name": "",
          "type": "uint256"
        }
      ],
      "stateMutability": "view",
      "type": "function"
    },
    {
      "inputs": [
        {
          "internalType": "address",
          "name": "owner",
          "type": "address"
        },
        {
          "internalType": "uint256",
          "name": "index",
          "type": "uint256"
        }
      ],
      "name": "tokenOfOwnerByIndex",
      "outputs": [
        {
          "internalType": "uint256",
          "name": "",
          "type": "uint256"
        }
      ],
      "stateMutability": "view",
      "type": "function"
    },
    {
      "inputs": [
        {
          "internalType": "uint256",
          "name": "tokenId",
          "type": "uint256"
        }
      ],
      "name": "tokenURI",
      "outputs": [
        {
          "internalType": "string",
          "name": "",
          "type": "string"
        }
      ],
      "stateMutability": "view",
      "type": "function"
    },
    {
      "inputs": [],
      "name": "totalSupply",
      "outputs": [
        {
          "internalType": "uint256",
          "name": "",
          "type": "uint256"
        }
      ],
      "stateMutability": "view",
      "type": "function"
    },
    {
      "inputs": [
        {
          "internalType": "address",
          "name": "from",
          "type": "address"
        },
        {
          "internalType": "address",
          "name": "to",
          "type": "address"
        },
        {
          "internalType": "uint256",
          "name": "tokenId",
          "type": "uint256"
        }
      ],
      "name": "transferFrom",
      "outputs": [],
      "stateMutability": "nonpayable",
      "type": "function"
    }
  ],
  "bytecode": "0x60806040523480156200001157600080fd5b50604051620042dd380380620042dd8339818101604052810190620000379190620001d0565b6040518060400160405280600b81526020017f4d79526f6f6d546f6b656e0000000000000000000000000000000000000000008152506040518060400160405280600481526020017f524f4f4d000000000000000000000000000000000000000000000000000000008152508160009081620000b491906200047c565b508060019081620000c691906200047c565b50505033600b60006101000a81548173ffffffffffffffffffffffffffffffffffffffff021916908373ffffffffffffffffffffffffffffffffffffffff16021790555080600c60006101000a81548173ffffffffffffffffffffffffffffffffffffffff021916908373ffffffffffffffffffffffffffffffffffffffff1602179055505062000563565b600080fd5b600073ffffffffffffffffffffffffffffffffffffffff82169050919050565b6000620001848262000157565b9050919050565b6000620001988262000177565b9050919050565b620001aa816200018b565b8114620001b657600080fd5b50565b600081519050620001ca816200019f565b92915050565b600060208284031215620001e957620001e862000152565b5b6000620001f984828501620001b9565b91505092915050565b600081519050919050565b7f4e487b7100000000000000000000000000000000000000000000000000000000600052604160045260246000fd5b7f4e487b7100000000000000000000000000000000000000000000000000000000600052602260045260246000fd5b600060028204905060018216806200028457607f821691505b6020821081036200029a57620002996200023c565b5b50919050565b60008190508160005260206000209050919050565b60006020601f8301049050919050565b600082821b905092915050565b600060088302620003047fffffffffffffffffffffffffffffffffffffffffffffffffffffffffffffffff82620002c5565b620003108683620002c5565b95508019841693508086168417925050509392505050565b6000819050919050565b6000819050919050565b60006200035d62000357620003518462000328565b62000332565b62000328565b9050919050565b6000819050919050565b62000379836200033c565b62000391620003888262000364565b848454620002d2565b825550505050565b600090565b620003a862000399565b620003b58184846200036e565b505050565b5b81811015620003dd57620003d16000826200039e565b600181019050620003bb565b5050565b601f8211156200042c57620003f681620002a0565b6200040184620002b5565b8101602085101562000411578190505b620004296200042085620002b5565b830182620003ba565b50505b505050565b600082821c905092915050565b6000620004516000198460080262000431565b1980831691505092915050565b60006200046c83836200043e565b9150826002028217905092915050565b620004878262000202565b67ffffffffffffffff811115620004a357620004a26200020d565b5b620004af82546200026b565b620004bc828285620003e1565b600060209050601f831160018114620004f45760008415620004df578287015190505b620004eb85826200045e565b8655506200055b565b601f1984166200050486620002a0565b60005b828110156200052e5784890151825560018201915060208501945060208101905062000507565b868310156200054e57848901516200054a601f8916826200043e565b8355505b6001600288020188555050505b505050505050565b613d6a80620005736000396000f3fe6080604052600436106101d85760003560e01c80636f9fb98a11610102578063c87b56dd11610095578063e890834611610064578063e8908346146106da578063e985e9c51461071a578063eddc426914610757578063f4dcb9c114610780576101d8565b8063c87b56dd14610620578063ca84edcd1461065d578063d0ab5e6314610686578063dd49756e146106b1576101d8565b8063a22cb465116100d1578063a22cb46514610551578063aeda852f1461057a578063b88d4fde146105ba578063bb842170146105e3576101d8565b80636f9fb98a1461049557806370a08231146104c057806395d89b41146104fd57806399b2317814610528576101d8565b80632d11c58a1161017a5780634f6ccce7116101495780634f6ccce7146103e65780635dc76901146104235780636352211e1461042d5780636d3739c41461046a576101d8565b80632d11c58a1461032a5780632f745c591461035557806342842e0e146103925780634df8ccb1146103bb576101d8565b8063095ea7b3116101b6578063095ea7b31461028257806314a8bd0d146102ab57806318160ddd146102d657806323b872dd14610301576101d8565b806301ffc9a7146101dd57806306fdde031461021a578063081812fc14610245575b600080fd5b3480156101e957600080fd5b5061020460048036038101906101ff9190612eb2565b6107ab565b6040516102119190612efa565b60405180910390f35b34801561022657600080fd5b5061022f610825565b60405161023c9190612fa5565b60405180910390f35b34801561025157600080fd5b5061026c60048036038101906102679190612ffd565b6108b7565b604051610279919061306b565b60405180910390f35b34801561028e57600080fd5b506102a960048036038101906102a491906130b2565b6108d3565b005b3480156102b757600080fd5b506102c06108e9565b6040516102cd9190613101565b60405180910390f35b3480156102e257600080fd5b506102eb6108ee565b6040516102f89190613101565b60405180910390f35b34801561030d57600080fd5b506103286004803603810190610323919061311c565b6108fb565b005b34801561033657600080fd5b5061033f6109fd565b60405161034c9190613101565b60405180910390f35b34801561036157600080fd5b5061037c600480360381019061037791906130b2565b610a02565b6040516103899190613101565b60405180910390f35b34801561039e57600080fd5b506103b960048036038101906103b4919061311c565b610aab565b005b3480156103c757600080fd5b506103d0610acb565b6040516103dd919061306b565b60405180910390f35b3480156103f257600080fd5b5061040d60048036038101906104089190612ffd565b610af1565b60405161041a9190613101565b60405180910390f35b61042b610b67565b005b34801561043957600080fd5b50610454600480360381019061044f9190612ffd565b610d8d565b604051610461919061306b565b60405180910390f35b34801561047657600080fd5b5061047f610d9f565b60405161048c91906131ce565b60405180910390f35b3480156104a157600080fd5b506104aa610dc5565b6040516104b79190613101565b60405180910390f35b3480156104cc57600080fd5b506104e760048036038101906104e291906131e9565b610dcd565b6040516104f49190613101565b60405180910390f35b34801561050957600080fd5b50610512610e87565b60405161051f9190612fa5565b60405180910390f35b34801561053457600080fd5b5061054f600480360381019061054a9190613216565b610f19565b005b34801561055d57600080fd5b5061057860048036038101906105739190613282565b6110ac565b005b34801561058657600080fd5b506105a1600480360381019061059c9190612ffd565b6110c2565b6040516105b194939291906132c2565b60405180910390f35b3480156105c657600080fd5b506105e160048036038101906105dc919061343c565b61111f565b005b3480156105ef57600080fd5b5061060a600480360381019061060591906131e9565b611144565b604051610617919061357d565b60405180910390f35b34801561062c57600080fd5b5061064760048036038101906106429190612ffd565b6111f2565b6040516106549190612fa5565b60405180910390f35b34801561066957600080fd5b50610684600480360381019061067f91906130b2565b61125b565b005b34801561069257600080fd5b5061069b611336565b6040516106a89190613101565b60405180910390f35b3480156106bd57600080fd5b506106d860048036038101906106d39190612ffd565b611377565b005b3480156106e657600080fd5b5061070160048036038101906106fc9190612ffd565b611460565b60405161071194939291906132c2565b60405180910390f35b34801561072657600080fd5b50610741600480360381019061073c919061359f565b611531565b60405161074e9190612efa565b60405180910390f35b34801561076357600080fd5b5061077e60048036038101906107799190612ffd565b6115c5565b005b34801561078c57600080fd5b506107956119be565b6040516107a2919061357d565b60405180910390f35b60007f780e9d63000000000000000000000000000000000000000000000000000000007bffffffffffffffffffffffffffffffffffffffffffffffffffffffff1916827bffffffffffffffffffffffffffffffffffffffffffffffffffffffff1916148061081e575061081d82611b0f565b5b9050919050565b6060600080546108349061360e565b80601f01602080910402602001604051908101604052809291908181526020018280546108609061360e565b80156108ad5780601f10610882576101008083540402835291602001916108ad565b820191906000526020600020905b81548152906001019060200180831161089057829003601f168201915b5050505050905090565b60006108c282611bf1565b506108cc82611c79565b9050919050565b6108e582826108e0611cb6565b611cbe565b5050565b600181565b6000600880549050905090565b600073ffffffffffffffffffffffffffffffffffffffff168273ffffffffffffffffffffffffffffffffffffffff160361096d5760006040517f64a0ae92000000000000000000000000000000000000000000000000000000008152600401610964919061306b565b60405180910390fd5b6000610981838361097c611cb6565b611cd0565b90508373ffffffffffffffffffffffffffffffffffffffff168173ffffffffffffffffffffffffffffffffffffffff16146109f7578382826040517f64283d7b0000000000000000000000000000000000000000000000000000000081526004016109ee9392919061363f565b60405180910390fd5b50505050565b600181565b6000610a0d83610dcd565b8210610a525782826040517fa57d13dc000000000000000000000000000000000000000000000000000000008152600401610a49929190613676565b60405180910390fd5b600660008473ffffffffffffffffffffffffffffffffffffffff1673ffffffffffffffffffffffffffffffffffffffff168152602001908152602001600020600083815260200190815260200160002054905092915050565b610ac68383836040518060200160405280600081525061111f565b505050565b600b60009054906101000a900473ffffffffffffffffffffffffffffffffffffffff1681565b6000610afb6108ee565b8210610b41576000826040517fa57d13dc000000000000000000000000000000000000000000000000000000008152600401610b38929190613676565b60405180910390fd5b60088281548110610b5557610b5461369f565b5b90600052602060002001549050919050565b60003411610baa576040517f08c379a0000000000000000000000000000000000000000000000000000000008152600401610ba19061371a565b60405180910390fd5b6000600134610bb99190613769565b905080600c60009054906101000a900473ffffffffffffffffffffffffffffffffffffffff1673ffffffffffffffffffffffffffffffffffffffff166370a08231306040518263ffffffff1660e01b8152600401610c17919061306b565b602060405180830381865afa158015610c34573d6000803e3d6000fd5b505050506040513d601f19601f82011682018060405250810190610c5891906137c0565b1015610c99576040517f08c379a0000000000000000000000000000000000000000000000000000000008152600401610c9090613839565b60405180910390fd5b600c60009054906101000a900473ffffffffffffffffffffffffffffffffffffffff1673ffffffffffffffffffffffffffffffffffffffff1663a9059cbb33836040518363ffffffff1660e01b8152600401610cf6929190613676565b6020604051808303816000875af1158015610d15573d6000803e3d6000fd5b505050506040513d601f19601f82011682018060405250810190610d39919061386e565b503373ffffffffffffffffffffffffffffffffffffffff167f852c5c1053d7fdee7488879410217c7080f85777721a7742875b112680135b203483604051610d8292919061389b565b60405180910390a250565b6000610d9882611bf1565b9050919050565b600c60009054906101000a900473ffffffffffffffffffffffffffffffffffffffff1681565b600047905090565b60008073ffffffffffffffffffffffffffffffffffffffff168273ffffffffffffffffffffffffffffffffffffffff1603610e405760006040517f89c62b64000000000000000000000000000000000000000000000000000000008152600401610e37919061306b565b60405180910390fd5b600360008373ffffffffffffffffffffffffffffffffffffffff1673ffffffffffffffffffffffffffffffffffffffff168152602001908152602001600020549050919050565b606060018054610e969061360e565b80601f0160208091040260200160405190810160405280929190818152602001828054610ec29061360e565b8015610f0f5780601f10610ee457610100808354040283529160200191610f0f565b820191906000526020600020905b815481529060010190602001808311610ef257829003601f168201915b5050505050905090565b3373ffffffffffffffffffffffffffffffffffffffff16610f3983610d8d565b73ffffffffffffffffffffffffffffffffffffffff1614610f8f576040517f08c379a0000000000000000000000000000000000000000000000000000000008152600401610f8690613910565b60405180910390fd5b600a600083815260200190815260200160002060030160009054906101000a900460ff1615610ff3576040517f08c379a0000000000000000000000000000000000000000000000000000000008152600401610fea9061397c565b60405180910390fd5b80600a60008481526020019081526020016000206001018190555042600a6000848152602001908152602001600020600201819055506001600a600084815260200190815260200160002060030160006101000a81548160ff0219169083151502179055503373ffffffffffffffffffffffffffffffffffffffff167f60b3e540896cf4a419e7b7274a1f1282223f5d92ca6f0152cf820fe457fb484383836040516110a092919061389b565b60405180910390a25050565b6110be6110b7611cb6565b8383611ded565b5050565b600a6020528060005260406000206000915090508060000160009054906101000a900473ffffffffffffffffffffffffffffffffffffffff16908060010154908060020154908060030160009054906101000a900460ff16905084565b61112a8484846108fb565b61113e611135611cb6565b85858585611f5c565b50505050565b6060600061115183610dcd565b905060008167ffffffffffffffff81111561116f5761116e613311565b5b60405190808252806020026020018201604052801561119d5781602001602082028036833780820191505090505b50905060005b828110156111e7576111b58582610a02565b8282815181106111c8576111c761369f565b5b60200260200101818152505080806111df9061399c565b9150506111a3565b508092505050919050565b60606111fd82611bf1565b50600061120861210d565b905060008151116112285760405180602001604052806000815250611253565b8061123284612124565b604051602001611243929190613a20565b6040516020818303038152906040525b915050919050565b61126582826121f2565b60405180608001604052808373ffffffffffffffffffffffffffffffffffffffff168152602001600081526020016000815260200160001515815250600a600083815260200190815260200160002060008201518160000160006101000a81548173ffffffffffffffffffffffffffffffffffffffff021916908373ffffffffffffffffffffffffffffffffffffffff160217905550602082015181600101556040820151816002015560608201518160030160006101000a81548160ff0219169083151502179055509050505050565b6000600b60009054906101000a900473ffffffffffffffffffffffffffffffffffffffff1673ffffffffffffffffffffffffffffffffffffffff1631905090565b600081116113ba576040517f08c379a00000000000000000000000000000000000000000000000000000000081526004016113b190613a90565b60405180910390fd5b600c60009054906101000a900473ffffffffffffffffffffffffffffffffffffffff1673ffffffffffffffffffffffffffffffffffffffff166323b872dd3330846040518463ffffffff1660e01b815260040161141993929190613ab0565b6020604051808303816000875af1158015611438573d6000803e3d6000fd5b505050506040513d601f19601f8201168201806040525081019061145c919061386e565b5050565b6000806000806000600a60008781526020019081526020016000206040518060800160405290816000820160009054906101000a900473ffffffffffffffffffffffffffffffffffffffff1673ffffffffffffffffffffffffffffffffffffffff1673ffffffffffffffffffffffffffffffffffffffff16815260200160018201548152602001600282015481526020016003820160009054906101000a900460ff161515151581525050905080600001518160200151826040015183606001519450945094509450509193509193565b6000600560008473ffffffffffffffffffffffffffffffffffffffff1673ffffffffffffffffffffffffffffffffffffffff16815260200190815260200160002060008373ffffffffffffffffffffffffffffffffffffffff1673ffffffffffffffffffffffffffffffffffffffff16815260200190815260200160002060009054906101000a900460ff16905092915050565b6000600a600083815260200190815260200160002090508060030160009054906101000a900460ff1661162d576040517f08c379a000000000000000000000000000000000000000000000000000000000815260040161162490613b33565b60405180910390fd5b600081600201544261163f9190613b53565b905060006001826116509190613769565b905060008184600101546116649190613b53565b90508360010154600c60009054906101000a900473ffffffffffffffffffffffffffffffffffffffff1673ffffffffffffffffffffffffffffffffffffffff166370a08231336040518263ffffffff1660e01b81526004016116c6919061306b565b602060405180830381865afa1580156116e3573d6000803e3d6000fd5b505050506040513d601f19601f8201168201806040525081019061170791906137c0565b1015611748576040517f08c379a000000000000000000000000000000000000000000000000000000000815260040161173f90613bd3565b60405180910390fd5b600c60009054906101000a900473ffffffffffffffffffffffffffffffffffffffff1673ffffffffffffffffffffffffffffffffffffffff166323b872dd33600b60009054906101000a900473ffffffffffffffffffffffffffffffffffffffff16856040518463ffffffff1660e01b81526004016117c993929190613ab0565b6020604051808303816000875af11580156117e8573d6000803e3d6000fd5b505050506040513d601f19601f8201168201806040525081019061180c919061386e565b50600c60009054906101000a900473ffffffffffffffffffffffffffffffffffffffff1673ffffffffffffffffffffffffffffffffffffffff166323b872dd338660000160009054906101000a900473ffffffffffffffffffffffffffffffffffffffff16846040518463ffffffff1660e01b815260040161189093929190613ab0565b6020604051808303816000875af11580156118af573d6000803e3d6000fd5b505050506040513d601f19601f820116820180604052508101906118d3919061386e565b506119038460000160009054906101000a900473ffffffffffffffffffffffffffffffffffffffff1633876122eb565b338460000160006101000a81548173ffffffffffffffffffffffffffffffffffffffff021916908373ffffffffffffffffffffffffffffffffffffffff16021790555060008460030160006101000a81548160ff0219169083151502179055503373ffffffffffffffffffffffffffffffffffffffff167f7d8ae52f455fef56a09ce9edb1dc811247eeee52705033ef77eb1dbf84fb9cbd8686600101546040516119af92919061389b565b60405180910390a25050505050565b606060006119ca6108ee565b90506000805b82811015611a315760006119e382610af1565b9050600a600082815260200190815260200160002060030160009054906101000a900460ff1615611a1d578280611a199061399c565b9350505b508080611a299061399c565b9150506119d0565b5060008167ffffffffffffffff811115611a4e57611a4d613311565b5b604051908082528060200260200182016040528015611a7c5781602001602082028036833780820191505090505b5090506000805b84811015611b04576000611a9682610af1565b9050600a600082815260200190815260200160002060030160009054906101000a900460ff1615611af05780848481518110611ad557611ad461369f565b5b6020026020010181815250508280611aec9061399c565b9350505b508080611afc9061399c565b915050611a83565b508194505050505090565b60007f80ac58cd000000000000000000000000000000000000000000000000000000007bffffffffffffffffffffffffffffffffffffffffffffffffffffffff1916827bffffffffffffffffffffffffffffffffffffffffffffffffffffffff19161480611bda57507f5b5e139f000000000000000000000000000000000000000000000000000000007bffffffffffffffffffffffffffffffffffffffffffffffffffffffff1916827bffffffffffffffffffffffffffffffffffffffffffffffffffffffff1916145b80611bea5750611be982612458565b5b9050919050565b600080611bfd836124c2565b9050600073ffffffffffffffffffffffffffffffffffffffff168173ffffffffffffffffffffffffffffffffffffffff1603611c7057826040517f7e273289000000000000000000000000000000000000000000000000000000008152600401611c679190613101565b60405180910390fd5b80915050919050565b60006004600083815260200190815260200160002060009054906101000a900473ffffffffffffffffffffffffffffffffffffffff169050919050565b600033905090565b611ccb83838360016124ff565b505050565b600080611cde8585856126c4565b9050600073ffffffffffffffffffffffffffffffffffffffff168173ffffffffffffffffffffffffffffffffffffffff1603611d2257611d1d846128de565b611d61565b8473ffffffffffffffffffffffffffffffffffffffff168173ffffffffffffffffffffffffffffffffffffffff1614611d6057611d5f8185612927565b5b5b600073ffffffffffffffffffffffffffffffffffffffff168573ffffffffffffffffffffffffffffffffffffffff1603611da357611d9e84612a12565b611de2565b8473ffffffffffffffffffffffffffffffffffffffff168173ffffffffffffffffffffffffffffffffffffffff1614611de157611de08585612ae3565b5b5b809150509392505050565b600073ffffffffffffffffffffffffffffffffffffffff168273ffffffffffffffffffffffffffffffffffffffff1603611e5e57816040517f5b08ba18000000000000000000000000000000000000000000000000000000008152600401611e55919061306b565b60405180910390fd5b80600560008573ffffffffffffffffffffffffffffffffffffffff1673ffffffffffffffffffffffffffffffffffffffff16815260200190815260200160002060008473ffffffffffffffffffffffffffffffffffffffff1673ffffffffffffffffffffffffffffffffffffffff16815260200190815260200160002060006101000a81548160ff0219169083151502179055508173ffffffffffffffffffffffffffffffffffffffff168373ffffffffffffffffffffffffffffffffffffffff167f17307eab39ab6107e8899845ad3d59bd9653f200f220920489ca2b5937696c3183604051611f4f9190612efa565b60405180910390a3505050565b60008373ffffffffffffffffffffffffffffffffffffffff163b1115612106578273ffffffffffffffffffffffffffffffffffffffff1663150b7a02868685856040518563ffffffff1660e01b8152600401611fbb9493929190613c48565b6020604051808303816000875af1925050508015611ff757506040513d601f19601f82011682018060405250810190611ff49190613ca9565b60015b61207b573d8060008114612027576040519150601f19603f3d011682016040523d82523d6000602084013e61202c565b606091505b50600081510361207357836040517f64a0ae9200000000000000000000000000000000000000000000000000000000815260040161206a919061306b565b60405180910390fd5b805181602001fd5b63150b7a0260e01b7bffffffffffffffffffffffffffffffffffffffffffffffffffffffff1916817bffffffffffffffffffffffffffffffffffffffffffffffffffffffff19161461210457836040517f64a0ae920000000000000000000000000000000000000000000000000000000081526004016120fb919061306b565b60405180910390fd5b505b5050505050565b606060405180602001604052806000815250905090565b60606000600161213384612b6e565b01905060008167ffffffffffffffff81111561215257612151613311565b5b6040519080825280601f01601f1916602001820160405280156121845781602001600182028036833780820191505090505b509050600082602001820190505b6001156121e7578080600190039150507f3031323334353637383961626364656600000000000000000000000000000000600a86061a8153600a85816121db576121da613cd6565b5b04945060008503612192575b819350505050919050565b600073ffffffffffffffffffffffffffffffffffffffff168273ffffffffffffffffffffffffffffffffffffffff16036122645760006040517f64a0ae9200000000000000000000000000000000000000000000000000000000815260040161225b919061306b565b60405180910390fd5b600061227283836000611cd0565b9050600073ffffffffffffffffffffffffffffffffffffffff168173ffffffffffffffffffffffffffffffffffffffff16146122e65760006040517f73c6ac6e0000000000000000000000000000000000000000000000000000000081526004016122dd919061306b565b60405180910390fd5b505050565b600073ffffffffffffffffffffffffffffffffffffffff168273ffffffffffffffffffffffffffffffffffffffff160361235d5760006040517f64a0ae92000000000000000000000000000000000000000000000000000000008152600401612354919061306b565b60405180910390fd5b600061236b83836000611cd0565b9050600073ffffffffffffffffffffffffffffffffffffffff168173ffffffffffffffffffffffffffffffffffffffff16036123de57816040517f7e2732890000000000000000000000000000000000000000000000000000000081526004016123d59190613101565b60405180910390fd5b8373ffffffffffffffffffffffffffffffffffffffff168173ffffffffffffffffffffffffffffffffffffffff1614612452578382826040517f64283d7b0000000000000000000000000000000000000000000000000000000081526004016124499392919061363f565b60405180910390fd5b50505050565b60007f01ffc9a7000000000000000000000000000000000000000000000000000000007bffffffffffffffffffffffffffffffffffffffffffffffffffffffff1916827bffffffffffffffffffffffffffffffffffffffffffffffffffffffff1916149050919050565b60006002600083815260200190815260200160002060009054906101000a900473ffffffffffffffffffffffffffffffffffffffff169050919050565b80806125385750600073ffffffffffffffffffffffffffffffffffffffff168273ffffffffffffffffffffffffffffffffffffffff1614155b1561266c57600061254884611bf1565b9050600073ffffffffffffffffffffffffffffffffffffffff168373ffffffffffffffffffffffffffffffffffffffff16141580156125b357508273ffffffffffffffffffffffffffffffffffffffff168173ffffffffffffffffffffffffffffffffffffffff1614155b80156125c657506125c48184611531565b155b1561260857826040517fa9fbf51f0000000000000000000000000000000000000000000000000000000081526004016125ff919061306b565b60405180910390fd5b811561266a57838573ffffffffffffffffffffffffffffffffffffffff168273ffffffffffffffffffffffffffffffffffffffff167f8c5be1e5ebec7d5bd14f71427d1e84f3dd0314c0f7b2291e5b200ac8c7c3b92560405160405180910390a45b505b836004600085815260200190815260200160002060006101000a81548173ffffffffffffffffffffffffffffffffffffffff021916908373ffffffffffffffffffffffffffffffffffffffff16021790555050505050565b6000806126d0846124c2565b9050600073ffffffffffffffffffffffffffffffffffffffff168373ffffffffffffffffffffffffffffffffffffffff161461271257612711818486612cc1565b5b600073ffffffffffffffffffffffffffffffffffffffff168173ffffffffffffffffffffffffffffffffffffffff16146127a3576127546000856000806124ff565b6001600360008373ffffffffffffffffffffffffffffffffffffffff1673ffffffffffffffffffffffffffffffffffffffff168152602001908152602001600020600082825403925050819055505b600073ffffffffffffffffffffffffffffffffffffffff168573ffffffffffffffffffffffffffffffffffffffff1614612826576001600360008773ffffffffffffffffffffffffffffffffffffffff1673ffffffffffffffffffffffffffffffffffffffff168152602001908152602001600020600082825401925050819055505b846002600086815260200190815260200160002060006101000a81548173ffffffffffffffffffffffffffffffffffffffff021916908373ffffffffffffffffffffffffffffffffffffffff160217905550838573ffffffffffffffffffffffffffffffffffffffff168273ffffffffffffffffffffffffffffffffffffffff167fddf252ad1be2c89b69c2b068fc378daa952ba7f163c4a11628f55a4df523b3ef60405160405180910390a4809150509392505050565b6008805490506009600083815260200190815260200160002081905550600881908060018154018082558091505060019003906000526020600020016000909190919091505550565b600061293283610dcd565b90506000600760008481526020019081526020016000205490506000600660008673ffffffffffffffffffffffffffffffffffffffff1673ffffffffffffffffffffffffffffffffffffffff16815260200190815260200160002090508282146129de5760008160008581526020019081526020016000205490508082600085815260200190815260200160002081905550826007600083815260200190815260200160002081905550505b6007600085815260200190815260200160002060009055806000848152602001908152602001600020600090555050505050565b60006001600880549050612a269190613b53565b9050600060096000848152602001908152602001600020549050600060088381548110612a5657612a5561369f565b5b906000526020600020015490508060088381548110612a7857612a7761369f565b5b906000526020600020018190555081600960008381526020019081526020016000208190555060096000858152602001908152602001600020600090556008805480612ac757612ac6613d05565b5b6001900381819060005260206000200160009055905550505050565b60006001612af084610dcd565b612afa9190613b53565b905081600660008573ffffffffffffffffffffffffffffffffffffffff1673ffffffffffffffffffffffffffffffffffffffff168152602001908152602001600020600083815260200190815260200160002081905550806007600084815260200190815260200160002081905550505050565b600080600090507a184f03e93ff9f4daa797ed6e38ed64bf6a1f0100000000000000008310612bcc577a184f03e93ff9f4daa797ed6e38ed64bf6a1f0100000000000000008381612bc257612bc1613cd6565b5b0492506040810190505b6d04ee2d6d415b85acef81000000008310612c09576d04ee2d6d415b85acef81000000008381612bff57612bfe613cd6565b5b0492506020810190505b662386f26fc100008310612c3857662386f26fc100008381612c2e57612c2d613cd6565b5b0492506010810190505b6305f5e1008310612c61576305f5e1008381612c5757612c56613cd6565b5b0492506008810190505b6127108310612c86576127108381612c7c57612c7b613cd6565b5b0492506004810190505b60648310612ca95760648381612c9f57612c9e613cd6565b5b0492506002810190505b600a8310612cb8576001810190505b80915050919050565b612ccc838383612d85565b612d8057600073ffffffffffffffffffffffffffffffffffffffff168373ffffffffffffffffffffffffffffffffffffffff1603612d4157806040517f7e273289000000000000000000000000000000000000000000000000000000008152600401612d389190613101565b60405180910390fd5b81816040517f177e802f000000000000000000000000000000000000000000000000000000008152600401612d77929190613676565b60405180910390fd5b505050565b60008073ffffffffffffffffffffffffffffffffffffffff168373ffffffffffffffffffffffffffffffffffffffff1614158015612e3d57508273ffffffffffffffffffffffffffffffffffffffff168473ffffffffffffffffffffffffffffffffffffffff161480612dfe5750612dfd8484611531565b5b80612e3c57508273ffffffffffffffffffffffffffffffffffffffff16612e2483611c79565b73ffffffffffffffffffffffffffffffffffffffff16145b5b90509392505050565b6000604051905090565b600080fd5b600080fd5b60007fffffffff0000000000000000000000000000000000000000000000000000000082169050919050565b612e8f81612e5a565b8114612e9a57600080fd5b50565b600081359050612eac81612e86565b92915050565b600060208284031215612ec857612ec7612e50565b5b6000612ed684828501612e9d565b91505092915050565b60008115159050919050565b612ef481612edf565b82525050565b6000602082019050612f0f6000830184612eeb565b92915050565b600081519050919050565b600082825260208201905092915050565b60005b83811015612f4f578082015181840152602081019050612f34565b60008484015250505050565b6000601f19601f8301169050919050565b6000612f7782612f15565b612f818185612f20565b9350612f91818560208601612f31565b612f9a81612f5b565b840191505092915050565b60006020820190508181036000830152612fbf8184612f6c565b905092915050565b6000819050919050565b612fda81612fc7565b8114612fe557600080fd5b50565b600081359050612ff781612fd1565b92915050565b60006020828403121561301357613012612e50565b5b600061302184828501612fe8565b91505092915050565b600073ffffffffffffffffffffffffffffffffffffffff82169050919050565b60006130558261302a565b9050919050565b6130658161304a565b82525050565b6000602082019050613080600083018461305c565b92915050565b61308f8161304a565b811461309a57600080fd5b50565b6000813590506130ac81613086565b92915050565b600080604083850312156130c9576130c8612e50565b5b60006130d78582860161309d565b92505060206130e885828601612fe8565b9150509250929050565b6130fb81612fc7565b82525050565b600060208201905061311660008301846130f2565b92915050565b60008060006060848603121561313557613134612e50565b5b60006131438682870161309d565b93505060206131548682870161309d565b925050604061316586828701612fe8565b9150509250925092565b6000819050919050565b600061319461318f61318a8461302a565b61316f565b61302a565b9050919050565b60006131a682613179565b9050919050565b60006131b88261319b565b9050919050565b6131c8816131ad565b82525050565b60006020820190506131e360008301846131bf565b92915050565b6000602082840312156131ff576131fe612e50565b5b600061320d8482850161309d565b91505092915050565b6000806040838503121561322d5761322c612e50565b5b600061323b85828601612fe8565b925050602061324c85828601612fe8565b9150509250929050565b61325f81612edf565b811461326a57600080fd5b50565b60008135905061327c81613256565b92915050565b6000806040838503121561329957613298612e50565b5b60006132a78582860161309d565b92505060206132b88582860161326d565b9150509250929050565b60006080820190506132d7600083018761305c565b6132e460208301866130f2565b6132f160408301856130f2565b6132fe6060830184612eeb565b95945050505050565b600080fd5b600080fd5b7f4e487b7100000000000000000000000000000000000000000000000000000000600052604160045260246000fd5b61334982612f5b565b810181811067ffffffffffffffff8211171561336857613367613311565b5b80604052505050565b600061337b612e46565b90506133878282613340565b919050565b600067ffffffffffffffff8211156133a7576133a6613311565b5b6133b082612f5b565b9050602081019050919050565b82818337600083830152505050565b60006133df6133da8461338c565b613371565b9050828152602081018484840111156133fb576133fa61330c565b5b6134068482856133bd565b509392505050565b600082601f83011261342357613422613307565b5b81356134338482602086016133cc565b91505092915050565b6000806000806080858703121561345657613455612e50565b5b60006134648782880161309d565b94505060206134758782880161309d565b935050604061348687828801612fe8565b925050606085013567ffffffffffffffff8111156134a7576134a6612e55565b5b6134b38782880161340e565b91505092959194509250565b600081519050919050565b600082825260208201905092915050565b6000819050602082019050919050565b6134f481612fc7565b82525050565b600061350683836134eb565b60208301905092915050565b6000602082019050919050565b600061352a826134bf565b61353481856134ca565b935061353f836134db565b8060005b8381101561357057815161355788826134fa565b975061356283613512565b925050600181019050613543565b5085935050505092915050565b60006020820190508181036000830152613597818461351f565b905092915050565b600080604083850312156135b6576135b5612e50565b5b60006135c48582860161309d565b92505060206135d58582860161309d565b9150509250929050565b7f4e487b7100000000000000000000000000000000000000000000000000000000600052602260045260246000fd5b6000600282049050600182168061362657607f821691505b602082108103613639576136386135df565b5b50919050565b6000606082019050613654600083018661305c565b61366160208301856130f2565b61366e604083018461305c565b949350505050565b600060408201905061368b600083018561305c565b61369860208301846130f2565b9392505050565b7f4e487b7100000000000000000000000000000000000000000000000000000000600052603260045260246000fd5b7f4d7573742073656e642045544800000000000000000000000000000000000000600082015250565b6000613704600d83612f20565b915061370f826136ce565b602082019050919050565b60006020820190508181036000830152613733816136f7565b9050919050565b7f4e487b7100000000000000000000000000000000000000000000000000000000600052601160045260246000fd5b600061377482612fc7565b915061377f83612fc7565b925082820261378d81612fc7565b915082820484148315176137a4576137a361373a565b5b5092915050565b6000815190506137ba81612fd1565b92915050565b6000602082840312156137d6576137d5612e50565b5b60006137e4848285016137ab565b91505092915050565b7f496e73756666696369656e7420746f6b656e7320696e20636f6e747261637400600082015250565b6000613823601f83612f20565b915061382e826137ed565b602082019050919050565b6000602082019050818103600083015261385281613816565b9050919050565b60008151905061386881613256565b92915050565b60006020828403121561388457613883612e50565b5b600061389284828501613859565b91505092915050565b60006040820190506138b060008301856130f2565b6138bd60208301846130f2565b9392505050565b7f4e6f7420746865206f776e657200000000000000000000000000000000000000600082015250565b60006138fa600d83612f20565b9150613905826138c4565b602082019050919050565b60006020820190508181036000830152613929816138ed565b9050919050565b7f416c7265616479206c6973746564000000000000000000000000000000000000600082015250565b6000613966600e83612f20565b915061397182613930565b602082019050919050565b6000602082019050818103600083015261399581613959565b9050919050565b60006139a782612fc7565b91507fffffffffffffffffffffffffffffffffffffffffffffffffffffffffffffffff82036139d9576139d861373a565b5b600182019050919050565b600081905092915050565b60006139fa82612f15565b613a0481856139e4565b9350613a14818560208601612f31565b80840191505092915050565b6000613a2c82856139ef565b9150613a3882846139ef565b91508190509392505050565b7f416d6f756e74206d7573742062652067726561746572207468616e207a65726f600082015250565b6000613a7a602083612f20565b9150613a8582613a44565b602082019050919050565b60006020820190508181036000830152613aa981613a6d565b9050919050565b6000606082019050613ac5600083018661305c565b613ad2602083018561305c565b613adf60408301846130f2565b949350505050565b7f486f757365206e6f74206c697374656400000000000000000000000000000000600082015250565b6000613b1d601083612f20565b9150613b2882613ae7565b602082019050919050565b60006020820190508181036000830152613b4c81613b10565b9050919050565b6000613b5e82612fc7565b9150613b6983612fc7565b9250828203905081811115613b8157613b8061373a565b5b92915050565b7f496e73756666696369656e7420746f6b656e2062616c616e6365000000000000600082015250565b6000613bbd601a83612f20565b9150613bc882613b87565b602082019050919050565b60006020820190508181036000830152613bec81613bb0565b9050919050565b600081519050919050565b600082825260208201905092915050565b6000613c1a82613bf3565b613c248185613bfe565b9350613c34818560208601612f31565b613c3d81612f5b565b840191505092915050565b6000608082019050613c5d600083018761305c565b613c6a602083018661305c565b613c7760408301856130f2565b8181036060830152613c898184613c0f565b905095945050505050565b600081519050613ca381612e86565b92915050565b600060208284031215613cbf57613cbe612e50565b5b6000613ccd84828501613c94565b91505092915050565b7f4e487b7100000000000000000000000000000000000000000000000000000000600052601260045260246000fd5b7f4e487b7100000000000000000000000000000000000000000000000000000000600052603160045260246000fdfea2646970667358221220817909618633319a45fc4280d7b3bdfcea03f9606f6d529f84f98a43afbd893c64736f6c63430008140033",
  "linkReferences": {},
  "deployedLinkReferences": {}
}