{
  "_format": "hh-sol-artifact-1",
  "contractName": "MyERC20",
  "sourceName": "contracts/MyERC20.sol",
  "abi": [
    {
      "inputs": [
        {
          "internalType": "string",
          "name": "name",
          "type": "string"
        },
        {
          "internalType": "string",
          "name": "symbol",
          "type": "string"
        }
      ],
      "stateMutability": "nonpayable",
      "type": "constructor"
    },
    {
      "inputs": [
        {
          "internalType": "address",
          "name": "spender",
          "type": "address"
        },
        {
          "internalType": "uint256",
          "name": "allowance",
          "type": "uint256"
        },
        {
          "internalType": "uint256",
          "name": "needed",
          "type": "uint256"
        }
      ],
      "name": "ERC20InsufficientAllowance",
      "type": "error"
    },
    {
      "inputs": [
        {
          "internalType": "address",
          "name": "sender",
          "type": "address"
        },
        {
          "internalType": "uint256",
          "name": "balance",
          "type": "uint256"
        },
        {
          "internalType": "uint256",
          "name": "needed",
          "type": "uint256"
        }
      ],
      "name": "ERC20InsufficientBalance",
      "type": "error"
    },
    {
      "inputs": [
        {
          "internalType": "address",
          "name": "approver",
          "type": "address"
        }
      ],
      "name": "ERC20InvalidApprover",
      "type": "error"
    },
    {
      "inputs": [
        {
          "internalType": "address",
          "name": "receiver",
          "type": "address"
        }
      ],
      "name": "ERC20InvalidReceiver",
      "type": "error"
    },
    {
      "inputs": [
        {
          "internalType": "address",
          "name": "sender",
          "type": "address"
        }
      ],
      "name": "ERC20InvalidSender",
      "type": "error"
    },
    {
      "inputs": [
        {
          "internalType": "address",
          "name": "spender",
          "type": "address"
        }
      ],
      "name": "ERC20InvalidSpender",
      "type": "error"
    },
    {
      "anonymous": false,
      "inputs": [
        {
          "indexed": true,
          "internalType": "address",
          "name": "owner",
          "type": "address"
        },
        {
          "indexed": true,
          "internalType": "address",
          "name": "spender",
          "type": "address"
        },
        {
          "indexed": false,
          "internalType": "uint256",
          "name": "value",
          "type": "uint256"
        }
      ],
      "name": "Approval",
      "type": "event"
    },
    {
      "anonymous": false,
      "inputs": [
        {
          "indexed": true,
          "internalType": "address",
          "name": "from",
          "type": "address"
        },
        {
          "indexed": true,
          "internalType": "address",
          "name": "to",
          "type": "address"
        },
        {
          "indexed": false,
          "internalType": "uint256",
          "name": "value",
          "type": "uint256"
        }
      ],
      "name": "Transfer",
      "type": "event"
    },
    {
      "inputs": [],
      "name": "EXCHANGE_RATE",
      "outputs": [
        {
          "internalType": "uint256",
          "name": "",
          "type": "uint256"
        }
      ],
      "stateMutability": "view",
      "type": "function"
    },
    {
      "inputs": [],
      "name": "airdrop",
      "outputs": [],
      "stateMutability": "nonpayable",
      "type": "function"
    },
    {
      "inputs": [
        {
          "internalType": "address",
          "name": "owner",
          "type": "address"
        },
        {
          "internalType": "address",
          "name": "spender",
          "type": "address"
        }
      ],
      "name": "allowance",
      "outputs": [
        {
          "internalType": "uint256",
          "name": "",
          "type": "uint256"
        }
      ],
      "stateMutability": "view",
      "type": "function"
    },
    {
      "inputs": [
        {
          "internalType": "address",
          "name": "spender",
          "type": "address"
        },
        {
          "internalType": "uint256",
          "name": "value",
          "type": "uint256"
        }
      ],
      "name": "approve",
      "outputs": [
        {
          "internalType": "bool",
          "name": "",
          "type": "bool"
        }
      ],
      "stateMutability": "nonpayable",
      "type": "function"
    },
    {
      "inputs": [
        {
          "internalType": "address",
          "name": "account",
          "type": "address"
        }
      ],
      "name": "balanceOf",
      "outputs": [
        {
          "internalType": "uint256",
          "name": "",
          "type": "uint256"
        }
      ],
      "stateMutability": "view",
      "type": "function"
    },
    {
      "inputs": [
        {
          "internalType": "address",
          "name": "",
          "type": "address"
        }
      ],
      "name": "claimedAirdropPlayerList",
      "outputs": [
        {
          "internalType": "bool",
          "name": "",
          "type": "bool"
        }
      ],
      "stateMutability": "view",
      "type": "function"
    },
    {
      "inputs": [],
      "name": "decimals",
      "outputs": [
        {
          "internalType": "uint8",
          "name": "",
          "type": "uint8"
        }
      ],
      "stateMutability": "view",
      "type": "function"
    },
    {
      "inputs": [
        {
          "internalType": "uint256",
          "name": "amount",
          "type": "uint256"
        }
      ],
      "name": "depositTokens",
      "outputs": [],
      "stateMutability": "nonpayable",
      "type": "function"
    },
    {
      "inputs": [],
      "name": "exchangeEtherForTokens",
      "outputs": [],
      "stateMutability": "payable",
      "type": "function"
    },
    {
      "inputs": [],
      "name": "getContractEtherBalance",
      "outputs": [
        {
          "internalType": "uint256",
          "name": "",
          "type": "uint256"
        }
      ],
      "stateMutability": "view",
      "type": "function"
    },
    {
      "inputs": [],
      "name": "name",
      "outputs": [
        {
          "internalType": "string",
          "name": "",
          "type": "string"
        }
      ],
      "stateMutability": "view",
      "type": "function"
    },
    {
      "inputs": [],
      "name": "owner",
      "outputs": [
        {
          "internalType": "address",
          "name": "",
          "type": "address"
        }
      ],
      "stateMutability": "view",
      "type": "function"
    },
    {
      "inputs": [],
      "name": "symbol",
      "outputs": [
        {
          "internalType": "string",
          "name": "",
          "type": "string"
        }
      ],
      "stateMutability": "view",
      "type": "function"
    },
    {
      "inputs": [],
      "name": "totalSupply",
      "outputs": [
        {
          "internalType": "uint256",
          "name": "",
          "type": "uint256"
        }
      ],
      "stateMutability": "view",
      "type": "function"
    },
    {
      "inputs": [
        {
          "internalType": "address",
          "name": "to",
          "type": "address"
        },
        {
          "internalType": "uint256",
          "name": "value",
          "type": "uint256"
        }
      ],
      "name": "transfer",
      "outputs": [
        {
          "internalType": "bool",
          "name": "",
          "type": "bool"
        }
      ],
      "stateMutability": "nonpayable",
      "type": "function"
    },
    {
      "inputs": [
        {
          "internalType": "address",
          "name": "from",
          "type": "address"
        },
        {
          "internalType": "address",
          "name": "to",
          "type": "address"
        },
        {
          "internalType": "uint256",
          "name": "value",
          "type": "uint256"
        }
      ],
      "name": "transferFrom",
      "outputs": [
        {
          "internalType": "bool",
          "name": "",
          "type": "bool"
        }
      ],
      "stateMutability": "nonpayable",
      "type": "function"
    },
    {
      "inputs": [
        {
          "internalType": "uint256",
          "name": "amount",
          "type": "uint256"
        }
      ],
      "name": "withdrawEther",
      "outputs": [],
      "stateMutability": "nonpayable",
      "type": "function"
    }
  ],
  "bytecode": "0x60806040523480156200001157600080fd5b506040516200259b3803806200259b833981810160405281019062000037919062000542565b818181600390816200004a919062000812565b5080600490816200005c919062000812565b50505033600660006101000a81548173ffffffffffffffffffffffffffffffffffffffff021916908373ffffffffffffffffffffffffffffffffffffffff160217905550620000e133620000b5620000e960201b60201c565b60ff16600a620000c6919062000a7c565b6103e8620000d5919062000acd565b620000f260201b60201c565b505062000c20565b60006012905090565b600073ffffffffffffffffffffffffffffffffffffffff168273ffffffffffffffffffffffffffffffffffffffff1603620001675760006040517fec442f050000000000000000000000000000000000000000000000000000000081526004016200015e919062000b5d565b60405180910390fd5b6200017b600083836200017f60201b60201c565b5050565b600073ffffffffffffffffffffffffffffffffffffffff168373ffffffffffffffffffffffffffffffffffffffff1603620001d5578060026000828254620001c8919062000b7a565b92505081905550620002ab565b60008060008573ffffffffffffffffffffffffffffffffffffffff1673ffffffffffffffffffffffffffffffffffffffff1681526020019081526020016000205490508181101562000264578381836040517fe450d38c0000000000000000000000000000000000000000000000000000000081526004016200025b9392919062000bc6565b60405180910390fd5b8181036000808673ffffffffffffffffffffffffffffffffffffffff1673ffffffffffffffffffffffffffffffffffffffff16815260200190815260200160002081905550505b600073ffffffffffffffffffffffffffffffffffffffff168273ffffffffffffffffffffffffffffffffffffffff1603620002f6578060026000828254039250508190555062000343565b806000808473ffffffffffffffffffffffffffffffffffffffff1673ffffffffffffffffffffffffffffffffffffffff168152602001908152602001600020600082825401925050819055505b8173ffffffffffffffffffffffffffffffffffffffff168373ffffffffffffffffffffffffffffffffffffffff167fddf252ad1be2c89b69c2b068fc378daa952ba7f163c4a11628f55a4df523b3ef83604051620003a2919062000c03565b60405180910390a3505050565b6000604051905090565b600080fd5b600080fd5b600080fd5b600080fd5b6000601f19601f8301169050919050565b7f4e487b7100000000000000000000000000000000000000000000000000000000600052604160045260246000fd5b6200041882620003cd565b810181811067ffffffffffffffff821117156200043a5762000439620003de565b5b80604052505050565b60006200044f620003af565b90506200045d82826200040d565b919050565b600067ffffffffffffffff82111562000480576200047f620003de565b5b6200048b82620003cd565b9050602081019050919050565b60005b83811015620004b85780820151818401526020810190506200049b565b60008484015250505050565b6000620004db620004d58462000462565b62000443565b905082815260208101848484011115620004fa57620004f9620003c8565b5b6200050784828562000498565b509392505050565b600082601f830112620005275762000526620003c3565b5b815162000539848260208601620004c4565b91505092915050565b600080604083850312156200055c576200055b620003b9565b5b600083015167ffffffffffffffff8111156200057d576200057c620003be565b5b6200058b858286016200050f565b925050602083015167ffffffffffffffff811115620005af57620005ae620003be565b5b620005bd858286016200050f565b9150509250929050565b600081519050919050565b7f4e487b7100000000000000000000000000000000000000000000000000000000600052602260045260246000fd5b600060028204905060018216806200061a57607f821691505b60208210810362000630576200062f620005d2565b5b50919050565b60008190508160005260206000209050919050565b60006020601f8301049050919050565b600082821b905092915050565b6000600883026200069a7fffffffffffffffffffffffffffffffffffffffffffffffffffffffffffffffff826200065b565b620006a686836200065b565b95508019841693508086168417925050509392505050565b6000819050919050565b6000819050919050565b6000620006f3620006ed620006e784620006be565b620006c8565b620006be565b9050919050565b6000819050919050565b6200070f83620006d2565b620007276200071e82620006fa565b84845462000668565b825550505050565b600090565b6200073e6200072f565b6200074b81848462000704565b505050565b5b8181101562000773576200076760008262000734565b60018101905062000751565b5050565b601f821115620007c2576200078c8162000636565b62000797846200064b565b81016020851015620007a7578190505b620007bf620007b6856200064b565b83018262000750565b50505b505050565b600082821c905092915050565b6000620007e760001984600802620007c7565b1980831691505092915050565b6000620008028383620007d4565b9150826002028217905092915050565b6200081d82620005c7565b67ffffffffffffffff811115620008395762000838620003de565b5b62000845825462000601565b6200085282828562000777565b600060209050601f8311600181146200088a576000841562000875578287015190505b620008818582620007f4565b865550620008f1565b601f1984166200089a8662000636565b60005b82811015620008c4578489015182556001820191506020850194506020810190506200089d565b86831015620008e45784890151620008e0601f891682620007d4565b8355505b6001600288020188555050505b505050505050565b7f4e487b7100000000000000000000000000000000000000000000000000000000600052601160045260246000fd5b60008160011c9050919050565b6000808291508390505b600185111562000987578086048111156200095f576200095e620008f9565b5b60018516156200096f5780820291505b80810290506200097f8562000928565b94506200093f565b94509492505050565b600082620009a2576001905062000a75565b81620009b2576000905062000a75565b8160018114620009cb5760028114620009d65762000a0c565b600191505062000a75565b60ff841115620009eb57620009ea620008f9565b5b8360020a91508482111562000a055762000a04620008f9565b5b5062000a75565b5060208310610133831016604e8410600b841016171562000a465782820a90508381111562000a405762000a3f620008f9565b5b62000a75565b62000a55848484600162000935565b9250905081840481111562000a6f5762000a6e620008f9565b5b81810290505b9392505050565b600062000a8982620006be565b915062000a9683620006be565b925062000ac57fffffffffffffffffffffffffffffffffffffffffffffffffffffffffffffffff848462000990565b905092915050565b600062000ada82620006be565b915062000ae783620006be565b925082820262000af781620006be565b9150828204841483151762000b115762000b10620008f9565b5b5092915050565b600073ffffffffffffffffffffffffffffffffffffffff82169050919050565b600062000b458262000b18565b9050919050565b62000b578162000b38565b82525050565b600060208201905062000b74600083018462000b4c565b92915050565b600062000b8782620006be565b915062000b9483620006be565b925082820190508082111562000baf5762000bae620008f9565b5b92915050565b62000bc081620006be565b82525050565b600060608201905062000bdd600083018662000b4c565b62000bec602083018562000bb5565b62000bfb604083018462000bb5565b949350505050565b600060208201905062000c1a600083018462000bb5565b92915050565b61196b8062000c306000396000f3fe6080604052600436106100fe5760003560e01c80633bed33ce1161009557806395d89b411161006457806395d89b41146103065780639d5f1cf414610331578063a9059cbb1461036e578063dd49756e146103ab578063dd62ed3e146103d4576100fe565b80633bed33ce1461026b5780635dc769011461029457806370a082311461029e5780638da5cb5b146102db576100fe565b806323b872dd116100d157806323b872dd146101c157806330e76dae146101fe578063313ce567146102295780633884d63514610254576100fe565b806306fdde0314610103578063095ea7b31461012e57806314a8bd0d1461016b57806318160ddd14610196575b600080fd5b34801561010f57600080fd5b50610118610411565b6040516101259190611124565b60405180910390f35b34801561013a57600080fd5b50610155600480360381019061015091906111df565b6104a3565b604051610162919061123a565b60405180910390f35b34801561017757600080fd5b506101806104c6565b60405161018d9190611264565b60405180910390f35b3480156101a257600080fd5b506101ab6104cb565b6040516101b89190611264565b60405180910390f35b3480156101cd57600080fd5b506101e860048036038101906101e3919061127f565b6104d5565b6040516101f5919061123a565b60405180910390f35b34801561020a57600080fd5b50610213610504565b6040516102209190611264565b60405180910390f35b34801561023557600080fd5b5061023e61050c565b60405161024b91906112ee565b60405180910390f35b34801561026057600080fd5b50610269610515565b005b34801561027757600080fd5b50610292600480360381019061028d9190611309565b610629565b005b61029c610768565b005b3480156102aa57600080fd5b506102c560048036038101906102c09190611336565b6107c9565b6040516102d29190611264565b60405180910390f35b3480156102e757600080fd5b506102f0610811565b6040516102fd9190611372565b60405180910390f35b34801561031257600080fd5b5061031b610837565b6040516103289190611124565b60405180910390f35b34801561033d57600080fd5b5061035860048036038101906103539190611336565b6108c9565b604051610365919061123a565b60405180910390f35b34801561037a57600080fd5b50610395600480360381019061039091906111df565b6108e9565b6040516103a2919061123a565b60405180910390f35b3480156103b757600080fd5b506103d260048036038101906103cd9190611309565b61090c565b005b3480156103e057600080fd5b506103fb60048036038101906103f6919061138d565b6109ed565b6040516104089190611264565b60405180910390f35b606060038054610420906113fc565b80601f016020809104026020016040519081016040528092919081815260200182805461044c906113fc565b80156104995780601f1061046e57610100808354040283529160200191610499565b820191906000526020600020905b81548152906001019060200180831161047c57829003601f168201915b5050505050905090565b6000806104ae610a74565b90506104bb818585610a7c565b600191505092915050565b600181565b6000600254905090565b6000806104e0610a74565b90506104ed858285610a8e565b6104f8858585610b22565b60019150509392505050565b600047905090565b60006012905090565b600560003373ffffffffffffffffffffffffffffffffffffffff1673ffffffffffffffffffffffffffffffffffffffff16815260200190815260200160002060009054906101000a900460ff16156105a2576040517f08c379a00000000000000000000000000000000000000000000000000000000081526004016105999061149f565b60405180910390fd5b6105cf336105ae61050c565b60ff16600a6105bd9190611621565b6127106105ca919061166c565b610c16565b6001600560003373ffffffffffffffffffffffffffffffffffffffff1673ffffffffffffffffffffffffffffffffffffffff16815260200190815260200160002060006101000a81548160ff021916908315150217905550565b600660009054906101000a900473ffffffffffffffffffffffffffffffffffffffff1673ffffffffffffffffffffffffffffffffffffffff163373ffffffffffffffffffffffffffffffffffffffff16146106b9576040517f08c379a00000000000000000000000000000000000000000000000000000000081526004016106b0906116fa565b60405180910390fd5b804710156106fc576040517f08c379a00000000000000000000000000000000000000000000000000000000081526004016106f390611766565b60405180910390fd5b600660009054906101000a900473ffffffffffffffffffffffffffffffffffffffff1673ffffffffffffffffffffffffffffffffffffffff166108fc829081150290604051600060405180830381858888f19350505050158015610764573d6000803e3d6000fd5b5050565b600034116107ab576040517f08c379a00000000000000000000000000000000000000000000000000000000081526004016107a2906117d2565b60405180910390fd5b60006001346107ba919061166c565b90506107c63382610c16565b50565b60008060008373ffffffffffffffffffffffffffffffffffffffff1673ffffffffffffffffffffffffffffffffffffffff168152602001908152602001600020549050919050565b600660009054906101000a900473ffffffffffffffffffffffffffffffffffffffff1681565b606060048054610846906113fc565b80601f0160208091040260200160405190810160405280929190818152602001828054610872906113fc565b80156108bf5780601f10610894576101008083540402835291602001916108bf565b820191906000526020600020905b8154815290600101906020018083116108a257829003601f168201915b5050505050905090565b60056020528060005260406000206000915054906101000a900460ff1681565b6000806108f4610a74565b9050610901818585610b22565b600191505092915050565b600660009054906101000a900473ffffffffffffffffffffffffffffffffffffffff1673ffffffffffffffffffffffffffffffffffffffff163373ffffffffffffffffffffffffffffffffffffffff161461099c576040517f08c379a00000000000000000000000000000000000000000000000000000000081526004016109939061183e565b60405180910390fd5b600081116109df576040517f08c379a00000000000000000000000000000000000000000000000000000000081526004016109d6906118aa565b60405180910390fd5b6109ea333083610b22565b50565b6000600160008473ffffffffffffffffffffffffffffffffffffffff1673ffffffffffffffffffffffffffffffffffffffff16815260200190815260200160002060008373ffffffffffffffffffffffffffffffffffffffff1673ffffffffffffffffffffffffffffffffffffffff16815260200190815260200160002054905092915050565b600033905090565b610a898383836001610c98565b505050565b6000610a9a84846109ed565b90507fffffffffffffffffffffffffffffffffffffffffffffffffffffffffffffffff8114610b1c5781811015610b0c578281836040517ffb8f41b2000000000000000000000000000000000000000000000000000000008152600401610b03939291906118ca565b60405180910390fd5b610b1b84848484036000610c98565b5b50505050565b600073ffffffffffffffffffffffffffffffffffffffff168373ffffffffffffffffffffffffffffffffffffffff1603610b945760006040517f96c6fd1e000000000000000000000000000000000000000000000000000000008152600401610b8b9190611372565b60405180910390fd5b600073ffffffffffffffffffffffffffffffffffffffff168273ffffffffffffffffffffffffffffffffffffffff1603610c065760006040517fec442f05000000000000000000000000000000000000000000000000000000008152600401610bfd9190611372565b60405180910390fd5b610c11838383610e6f565b505050565b600073ffffffffffffffffffffffffffffffffffffffff168273ffffffffffffffffffffffffffffffffffffffff1603610c885760006040517fec442f05000000000000000000000000000000000000000000000000000000008152600401610c7f9190611372565b60405180910390fd5b610c9460008383610e6f565b5050565b600073ffffffffffffffffffffffffffffffffffffffff168473ffffffffffffffffffffffffffffffffffffffff1603610d0a5760006040517fe602df05000000000000000000000000000000000000000000000000000000008152600401610d019190611372565b60405180910390fd5b600073ffffffffffffffffffffffffffffffffffffffff168373ffffffffffffffffffffffffffffffffffffffff1603610d7c5760006040517f94280d62000000000000000000000000000000000000000000000000000000008152600401610d739190611372565b60405180910390fd5b81600160008673ffffffffffffffffffffffffffffffffffffffff1673ffffffffffffffffffffffffffffffffffffffff16815260200190815260200160002060008573ffffffffffffffffffffffffffffffffffffffff1673ffffffffffffffffffffffffffffffffffffffff168152602001908152602001600020819055508015610e69578273ffffffffffffffffffffffffffffffffffffffff168473ffffffffffffffffffffffffffffffffffffffff167f8c5be1e5ebec7d5bd14f71427d1e84f3dd0314c0f7b2291e5b200ac8c7c3b92584604051610e609190611264565b60405180910390a35b50505050565b600073ffffffffffffffffffffffffffffffffffffffff168373ffffffffffffffffffffffffffffffffffffffff1603610ec1578060026000828254610eb59190611901565b92505081905550610f94565b60008060008573ffffffffffffffffffffffffffffffffffffffff1673ffffffffffffffffffffffffffffffffffffffff16815260200190815260200160002054905081811015610f4d578381836040517fe450d38c000000000000000000000000000000000000000000000000000000008152600401610f44939291906118ca565b60405180910390fd5b8181036000808673ffffffffffffffffffffffffffffffffffffffff1673ffffffffffffffffffffffffffffffffffffffff16815260200190815260200160002081905550505b600073ffffffffffffffffffffffffffffffffffffffff168273ffffffffffffffffffffffffffffffffffffffff1603610fdd578060026000828254039250508190555061102a565b806000808473ffffffffffffffffffffffffffffffffffffffff1673ffffffffffffffffffffffffffffffffffffffff168152602001908152602001600020600082825401925050819055505b8173ffffffffffffffffffffffffffffffffffffffff168373ffffffffffffffffffffffffffffffffffffffff167fddf252ad1be2c89b69c2b068fc378daa952ba7f163c4a11628f55a4df523b3ef836040516110879190611264565b60405180910390a3505050565b600081519050919050565b600082825260208201905092915050565b60005b838110156110ce5780820151818401526020810190506110b3565b60008484015250505050565b6000601f19601f8301169050919050565b60006110f682611094565b611100818561109f565b93506111108185602086016110b0565b611119816110da565b840191505092915050565b6000602082019050818103600083015261113e81846110eb565b905092915050565b600080fd5b600073ffffffffffffffffffffffffffffffffffffffff82169050919050565b60006111768261114b565b9050919050565b6111868161116b565b811461119157600080fd5b50565b6000813590506111a38161117d565b92915050565b6000819050919050565b6111bc816111a9565b81146111c757600080fd5b50565b6000813590506111d9816111b3565b92915050565b600080604083850312156111f6576111f5611146565b5b600061120485828601611194565b9250506020611215858286016111ca565b9150509250929050565b60008115159050919050565b6112348161121f565b82525050565b600060208201905061124f600083018461122b565b92915050565b61125e816111a9565b82525050565b60006020820190506112796000830184611255565b92915050565b60008060006060848603121561129857611297611146565b5b60006112a686828701611194565b93505060206112b786828701611194565b92505060406112c8868287016111ca565b9150509250925092565b600060ff82169050919050565b6112e8816112d2565b82525050565b600060208201905061130360008301846112df565b92915050565b60006020828403121561131f5761131e611146565b5b600061132d848285016111ca565b91505092915050565b60006020828403121561134c5761134b611146565b5b600061135a84828501611194565b91505092915050565b61136c8161116b565b82525050565b60006020820190506113876000830184611363565b92915050565b600080604083850312156113a4576113a3611146565b5b60006113b285828601611194565b92505060206113c385828601611194565b9150509250929050565b7f4e487b7100000000000000000000000000000000000000000000000000000000600052602260045260246000fd5b6000600282049050600182168061141457607f821691505b602082108103611427576114266113cd565b5b50919050565b7f5468697320757365722068617320636c61696d65642061697264726f7020616c60008201527f7265616479000000000000000000000000000000000000000000000000000000602082015250565b600061148960258361109f565b91506114948261142d565b604082019050919050565b600060208201905081810360008301526114b88161147c565b9050919050565b7f4e487b7100000000000000000000000000000000000000000000000000000000600052601160045260246000fd5b60008160011c9050919050565b6000808291508390505b600185111561154557808604811115611521576115206114bf565b5b60018516156115305780820291505b808102905061153e856114ee565b9450611505565b94509492505050565b60008261155e576001905061161a565b8161156c576000905061161a565b8160018114611582576002811461158c576115bb565b600191505061161a565b60ff84111561159e5761159d6114bf565b5b8360020a9150848211156115b5576115b46114bf565b5b5061161a565b5060208310610133831016604e8410600b84101617156115f05782820a9050838111156115eb576115ea6114bf565b5b61161a565b6115fd84848460016114fb565b92509050818404811115611614576116136114bf565b5b81810290505b9392505050565b600061162c826111a9565b9150611637836111a9565b92506116647fffffffffffffffffffffffffffffffffffffffffffffffffffffffffffffffff848461154e565b905092915050565b6000611677826111a9565b9150611682836111a9565b9250828202611690816111a9565b915082820484148315176116a7576116a66114bf565b5b5092915050565b7f4f6e6c79206f776e65722063616e207769746864726177204574686572000000600082015250565b60006116e4601d8361109f565b91506116ef826116ae565b602082019050919050565b60006020820190508181036000830152611713816116d7565b9050919050565b7f496e73756666696369656e742045746865722062616c616e6365000000000000600082015250565b6000611750601a8361109f565b915061175b8261171a565b602082019050919050565b6000602082019050818103600083015261177f81611743565b9050919050565b7f4d7573742073656e642045544800000000000000000000000000000000000000600082015250565b60006117bc600d8361109f565b91506117c782611786565b602082019050919050565b600060208201905081810360008301526117eb816117af565b9050919050565b7f4f6e6c79206f776e65722063616e206465706f73697420746f6b656e73000000600082015250565b6000611828601d8361109f565b9150611833826117f2565b602082019050919050565b600060208201905081810360008301526118578161181b565b9050919050565b7f416d6f756e74206d7573742062652067726561746572207468616e207a65726f600082015250565b600061189460208361109f565b915061189f8261185e565b602082019050919050565b600060208201905081810360008301526118c381611887565b9050919050565b60006060820190506118df6000830186611363565b6118ec6020830185611255565b6118f96040830184611255565b949350505050565b600061190c826111a9565b9150611917836111a9565b925082820190508082111561192f5761192e6114bf565b5b9291505056fea2646970667358221220ae5bc39992fdf92b62a0fff2cbb73df16fe5a9fa178e0c765ff04614359c425c64736f6c63430008140033",
  "linkReferences": {},
  "deployedLinkReferences": {}
}